:1000000000800020BD0100006D0E0000390E0000D0
:10001000390E0000390E0000390E0000390E0000C4
:10002000390E0000390E0000390E00006D0E000080
:100030006D0E0000390E00006D0E0000290E00004C
:100040006D0E00006D0E00006D0E00006D0E0000C4
:100050006D0E00006D0E00006D0E00006D0E0000B4
:100060006D0E00006D0E00006D0E00006D0E0000A4
:100070006D0E00006D0E00006D0E00006D0E000094
:100080006D0E00006D0E00006D0E00006D0E000084
:100090006D0E00006D0E00006D0E00006D0E000074
:1000A0008D440000994400006D0E00006D0E0000AC
:1000B0006D0E00006D0E00006D0E00006D0E000054
:1000C0006D0E00006D0E00006D0E00006D0E000044
:1000D0006D0E00006D0E00006D0E00006D0E000034
:1000E0006D0E00006D0E00006D0E00006D0E000024
:1000F0006D0E0000012800006D0E0000BD2E0000F6
:100100006D0E0000BD3300006D0E00006D0E00008E
:100110006D0E00006D0E00006D0E00006D0E0000F3
:100120006D0E00006D0E00006D0E00006D0E0000E3
:100130006D0E00006D0E00006D0E00006D0E0000D3
:100140006D0E00006D0E00006D0E00006D0E0000C3
:100150006D0E00006D0E00006D0E00006D0E0000B3
:100160006D0E0000711500006D0E00006D0E000098
:100170006D0E00006D0E00006D0E00006D0E000093
:100180006D0E00006D0E00006D0E00006D0E000083
:100190006D0E00006D0E00006D0E00006D0E000073
:1001A0006D0E00006D0E00006D0E00006D0E000063
:1001B0006D0E00006D0E00006D0E0000564B4CF2EF
:1001C000205210B51A804DF628121A8000BF00BFC9
:1001D00000F050FE514B4FF010621A60504A9A6086
:1001E000504ADA60A3F53043203B1A6812F480725B
:1001F00004D14D490A604FF4A8521A604B4B1A784B
:10020000110703D51A7842F008021A70484B2A22C7
:100210001A700023474A48499818884204D247492F
:10022000595899500433F5E7454A464B9A424FF0E6
:10023000000302D242F8043BF7E74349434A5958C6
:1002400099500433B3F5DE7FF7D1414B802103F899
:10025000011B40498B42F9D13F4B1A603F4B8A2228
:100260001A70A3F5805324225A70A0221A709A792A
:100270009207FCD59A79D406FCD4394B9A7902F0CE
:100280000C02082AF9D105221A7143225A719A796F
:100290009006FCD5324B9A795106FBD5314A4FF086
:1002A000817111600521516020221A702C4B9B79BD
:1002B00003F00C030C2BF9D12B4B2C4A1A602C4B5E
:1002C0002C4A1A6000225A60072243F8042C2A4A5A
:1002D000C3F80C2D62B601F031F8134B1B68DA0736
:1002E00005D5264800F05EFE254B264A1A60264BAF
:1002F0001B785B0609D5224C224A2368934204D11D
:100300001E4800F04FFE0023236004F075F900F052
:10031000B7FD00F0E7FCFEE70E200540308004400A
:10032000823F04000100002B14D0034002D007409C
:1003300000E007406087FF1F148FFF1FFC4B000089
:10034000188FFF1F2493FF1F000000000082FF1F73
:1003500000E400E05FE400E008ED00E0005006404B
:10036000004006404480044004800440C010050062
:1003700014E000E03F19010000002020276EDD5846
:100380001CE00340A5C3945A00F00740FFFFFFFFA5
:10039000FFFFFFFFFFFFFFFFFFFFFFFFFFFFFFFF6D
:1003A000FFFFFFFFFFFFFFFFFFFFFFFFFFFFFFFF5D
:1003B000FFFFFFFFFFFFFFFFFFFFFFFFFFFFFFFF4D
:1003C000FFFFFFFFFFFFFFFFFFFFFFFFFFFFFFFF3D
:1003D000FFFFFFFFFFFFFFFFFFFFFFFFFFFFFFFF2D
:1003E000FFFFFFFFFFFFFFFFFFFFFFFFFFFFFFFF1D
:1003F000FFFFFFFFFFFFFFFFFFFFFFFFFFFFFFFF0D
:10040000FFFFFFFFFFFFFFFFFFFFFFFFDEF9FFFF23
:1004100010B5054C237833B9044B13B10448AFF33E
:1004200000800123237010BD188FFF1F0000000003
:10043000FC4B000008B5064B1BB106480649AFF35C
:1004400000800648036813B1054B03B1984708BD07
:1004500000000000FC4B00001C8FFF1F148FFF1FCB
:10046000000000002DE9F04790F8708088B08246C7
:10047000B8F1000F02D14FF0000874E03C4B1B684C
:100480000793DDF81C90036CC3EB0902836D9A425D
:10049000F1D3436BD3E90001DAF83C30CDE9000138
:1004A000D3E90001DDE9002303F02CF8DAE90823A1
:1004B000CDE9040103F0DAF9DAE9122303F024F8B4
:1004C000DAE91A4506460F46CAE9126722462B4664
:1004D00003F05CFC10B1CAE912450CE0DAE918231C
:1004E00030463946CDE9022303F032FC18B1DDE98C
:1004F0000201CAE91201DAE90623DDE9040103F089
:10050000B5F9DAE9122302F0FFFFDAE9142306460F
:100510000F46DDE9000102F0F5FFDAE90A2303F0F6
:10052000A5F902460B463046394602F0EBFF22465B
:100530002B4606460F4603F029FC50B9DAE9184568
:100540003046394622462B4603F002FC08B93446B1
:100550003D46DAF83830C3E90045DDE90023CAE951
:100560001423CAF84090404608B0BDE8F08700BFA9
:100570001890FF1F2DE9F0471946824614461D4684
:10058000104600230022DDE9086703F0E1FB0028A4
:1005900053D1304639460022002303F0D9FB00280E
:1005A0004BD1DDE90A010022002303F0D1FB002832
:1005B00043D1DDE90A23CAE90267CAE90423CAE98B
:1005C0000045DAF8580003F0DBF800221C4B03F07A
:1005D00077FA8046894642464B4630463946CAE954
:1005E000064503F043F906460F464B464246CAE924
:1005F0000867DDE90A0103F063FADAF83030804673
:100600008946012BCAE90A8917D122462B460020C8
:10061000002102F077FF3246CAE906013B4600207E
:10062000002102F06FFF4246CAE908014B46002054
:10063000002102F067FFCAE90A01BDE8F08700BFA8
:1006400000408F40836B2DE9F041D3E90045C0E9BC
:100650001245436BD0E91A67D3E900238046C0E90D
:1006600014232946204632463B4603F08FFB40B90F
:10067000D8E918672046294632463B4603F068FB16
:1006800008B1C8E91267BDE8F08138B54B1E5D427C
:100690005D4190F8703083F001039D42044601D122
:1006A000FFF7D0FF84F8705038BD38B590F870303F
:1006B00004460D46D3B1036B994217D0D4E9062303
:1006C0000020002102F01EFFD4E90823C4E906013E
:1006D0000020002102F016FFD4E90A23C4E9080132
:1006E0000020002102F00EFFC4E90A01256338BD95
:1006F00010B5C3630023826380F8703000220023AA
:10070000C0E9182312A3D3E9002386B0C0E91A2355
:100710006423416383650E990446FFF7C6FFDDE954
:100720000A23CDE90023DDE90C232046CDE902238D
:10073000DDE90823FFF71EFF074B1B680593059AA9
:10074000A36D2046D31A236406B010BDAFF300801A
:100750000000000000E06F401890FF1FAFF3008022
:1007600008B5002000F0FEF903F01AF80A4BC3E9BF
:1007700000010A4B0A490022C1E900230D20012192
:1007800000F040FC07480121FFF77FFF064B4FF4C4
:100790007A721A6008BD00BFD88FFF1F0000594051
:1007A000F08FFF1F588FFF1FFC8FFF1F37B50D4BBA
:1007B0000D4C1B680193019B22680C4D2B609B1A0A
:1007C0000B4A11688B420BD90A4B197811F1FF3192
:1007D00018BF01210D20197000F0F4FB2B68236075
:1007E00003B030BD1890FF1FD08FFF1FF88FFF1F81
:1007F000FC8FFF1F4488FF1F08B5002000F0B2F9EE
:1008000002F0CEFF0A4BC3E900010A48FFF72AFEB7
:1008100048B9094BD3E9000103F0C2FA01460320AD
:1008200000F072FCF1E7BDE80840FFF7BFBF00BF72
:10083000D88FFF1F588FFF1F408FFF1FFFFFFFFF45
:1008400010B5254B254C1A78254B26491A6088B0DF
:10085000204600F0A5F8244A2449204603F0B6FEBD
:10086000234B186802F0AEFF19A3D3E9002302F06E
:10087000FDFF03F0BDFA1F4B18601F4B186802F014
:10088000A1FF13A3D3E9002302F0F0FF03F0B0FAB5
:100890001A4B186000F0E2F9194B1A491A48D3E9CB
:1008A0000023CDE90023194BD3E90023CDE902232E
:1008B000174BD3E90023CDE9042300230693154AFF
:1008C000154BFFF715FF08B010BD00BFAFF3008058
:1008D000AA4C58E87AB6EB3F4588FF1F488FFF1FA8
:1008E000FC8FFF1F4F4800003C88FF1F21090000BC
:1008F0004088FF1FE08FFF1FE48FFF1FE88FFF1F5F
:100900000090FF1FD88FFF1F588FFF1F0890FF1FF9
:10091000388FFF1F408FFF1FF08FFF1FAFF3008046
:1009200010B50446006803F08DFE204610BD38B5B2
:1009300004460D460068013103F024FF10B184E83D
:100940002100012038BD43688B4210B5044606D211
:10095000FFF7EDFF20B1A3680BB9226813700120E7
:1009600010BDF8B504460F46154622B9036803B119
:100970001A7000230BE01146FFF7E5FF064640B969
:10098000206810B103F05EFE266000236360A36060
:1009900004E0A5602068394603F00EFF2046F8BD4C
:1009A00038B50023044603604360836003730D463B
:1009B00039B1084603F008FF294602462046FFF7F2
:1009C000D0FF204638BDFFFFF0B5304B1B681B063B
:1009D000FBD42F4B1B6813F08002F6D172B62D4B5F
:1009E0001978002950D02C4908684F688E68CD6866
:1009F0000C693844143130440968284420440844C0
:100A0000C0F34E00254940F400400860C86A0F6BEF
:100A10004E6B8D6BCC6B38444031304409682844B0
:100A200020440844C0F34E001D4940F400400860D3
:100A300001F10811143151F8140C51F8107C51F8DF
:100A40000C6C51F8085C51F8044C09683844304487
:100A5000284420440844C0F34E00124940F40040AA
:100A60000860C86A0F6B4E6B8D6BCC6B384440319D
:100A700030440968284420440844C0F34E000A4921
:100A800040F4004008601A7062B6F0BD24B0034024
:100A900024B00B401190FF1F38B003402CB003402E
:100AA00030B003402CB00B4030B00B4010B5204BA1
:100AB0002048214960221A70E1225A701F4B204AB7
:100AC0001C78204B082C01D1012402E00A2C03D110
:100AD00019240460132005E00C2C0CBF15243D24C0
:100AE00004601220086014601860174B17491B78C7
:100AF000174A03B101230B601360164B164A19788D
:100B0000164B012901D880210BE0042901D884214A
:100B100007E0082901D8852103E0102994BF862128
:100B20008721116019600E4B01221A7010BD00BFA1
:100B30000040074008B003400CB003404688FF1F48
:100B400008B00B400CB00B401490FF1F20B00340C6
:100B500020B00B404788FF1F24B0034024B00B4057
:100B60001190FF1F282838B547D8254B1C5CFF2C57
:100B700043D0244B1B780BB1FFF726FF210614D47A
:100B800072B6214B214D1C6001232B7062B672B6E8
:100B90001D4B1B681A0601D51D4B1FE02B78002B3F
:100BA000EFD062B601F0B2F9F1E772B6194B1A4D07
:100BB0001A6814F0400F14BF22F0100242F0100225
:100BC0001A60164B04F03F021A6001232B7062B6C4
:100BD00072B6124B1B681B0608D5114B1868002310
:100BE0002B7062B60F4B1B78184138BD2B78002B49
:100BF000DCD062B601F08AF9EAE7002038BD00BF18
:100C0000614800001190FF1F00B003401390FF1FC8
:100C100010B003400CB00B401290FF1F00B00B400F
:100C200010B00B401090FF1F084B1A6842F480521E
:100C30001A60074B1A78074B0AB1802200E0C022E5
:100C40001A70054B80F30C00188070472C8004400C
:100C50001490FF1F21C00C4000C00C407FB51C4BFE
:100C60006A4603F110056E4618685968144603C4B5
:100C70000833AB422246F7D1164B1A7812F0020F16
:100C80001D461CD0144A154B117811F0700118BF85
:100C9000117080221A70002203F8032C33221A717B
:100CA0000322DA7072B60C4C46F001062046B047BB
:100CB00062B6237813F0700301D0237005E0084B6F
:100CC0002A78D20701D4013BFAD104B070BD00BF2D
:100CD0008A48000001000240000002400700024074
:100CE000410D030008B5FFF73BFDFFF785FD01F05F
:100CF0000DF9FAE7844641EA000313F003036DD1CE
:100D0000403A41D351F8043B40F8043B51F8043BCE
:100D100040F8043B51F8043B40F8043B51F8043BD5
:100D200040F8043B51F8043B40F8043B51F8043BC5
:100D300040F8043B51F8043B40F8043B51F8043BB5
:100D400040F8043B51F8043B40F8043B51F8043BA5
:100D500040F8043B51F8043B40F8043B51F8043B95
:100D600040F8043B51F8043B40F8043B51F8043B85
:100D700040F8043B51F8043B40F8043B51F8043B75
:100D800040F8043B403ABDD2303211D351F8043B15
:100D900040F8043B51F8043B40F8043B51F8043B55
:100DA00040F8043B51F8043B40F8043B103AEDD2C4
:100DB0000C3205D351F8043B40F8043B043AF9D215
:100DC000043208D0D2071CBF11F8013B00F8013BE8
:100DD00001D30B8803806046704700BF082A13D3F5
:100DE0008B078DD010F003038AD0C3F10403D21A0D
:100DF000DB071CBF11F8013B00F8013B80D331F841
:100E0000023B20F8023B7BE7043AD9D3013A11F8C0
:100E1000013B00F8013BF9D20B7803704B7843702B
:100E20008B78837060467047024B1A6801321A60F3
:100E3000704700BF1890FF1F08B50B4C236858037C
:100E400001D500F095FB2368590501D501F0D8FCC8
:100E500023681A0501D502F031F82368DB04ECD5CC
:100E600002F0ACFAE9E700BF3480044008B5FFF7B0
:100E7000E3FFFFFF014B10221A807047002005405E
:100E80007047FFFF024A1368184410601846704705
:100E90004888FF1FEFF313839BB9EFF3108098B9D5
:100EA000EFF3058323B10F2B04D9084A985C01E0C6
:100EB0004FF48070EFF311833BB1834238BF184683
:100EC00070474FF0FF30704718467047F0E300E07E
:100ED00010B50023B0FBF2F402FB1400092894BF04
:100EE00030303730C0B2C85420460CB10133F1E77E
:100EF000CA18547022469A4206DA885CCC5C8C543C
:100F0000C8540132013BF6E7084610BD7047FFFFA9
:100F100000F14040A0F592237C2B14D9A0F5942336
:100F20007C2B12D9A0F596237C2B10D9A0F5982301
:100F30007C2B06D9A0F59A207D28064828BF0020E2
:100F40007047054870470548704705487047054891
:100F5000704700BF2489FF1F0489FF1F4C88FF1FB3
:100F60008488FF1FD488FF1F0C4B03EBC00010B513
:100F700044682046FFF7CCFF70B172B6236823F0B7
:100F8000877323F4803343F080732360C4F38404B5
:100F9000034B40F8243062B610BD00BF9C480000EF
:100FA0000D0F0000044B054900221A600A60044A34
:100FB000106010221A60704714D0034004D0034020
:100FC00000D00340212810B518D80D4A52F830300F
:100FD00093F880423CB1012211B183F8802010BD0A
:100FE00083F8002110BD02EBC00043681A6811B1FC
:100FF00042F0030201E022F002021A6010BD00BFBD
:101000009C480000212810B52BD8164A02EBC003DB
:1010100001295B68144601D004290FD154F830200F
:10102000012082F880024FF4A2721A601A68042923
:101030000CBF42F0200222F0200211E052F83000F2
:10104000002280F8802211B94FF4807208E0022952
:1010500002D140F2031203E0032908BF4FF481726A
:101060001A6010BD9C480000212870B50D463CD880
:10107000042A3AD8DFE802F00709050B03000B2326
:1010800006E00A2304E0082302E00C2300E0092321
:101090001E04164B03EBC0035C68216811F4E06189
:1010A00001D1FFF7AFFF124B124AC3F89C21124A3D
:1010B000C3F8A021114AC3F8A421114AC3F8A821FA
:1010C0002046104AC3F8AC21FFF722FF68B172B680
:1010D000226822F470222260C4F3840342F08072FA
:1010E000164340F82350266062B670BD9C4800004D
:1010F0000082FF1F1188FF1FE587FF1FB987FF1FB1
:101100008D87FF1F6187FF1F282838B5604A044676
:101110000B4611D112780B2A04D8C2F10C0201FA45
:1011200002F304E00C2A1CBF0C3A41FA02F3184601
:10113000BDE83840FFF778BD11780125002B05FA8E
:1011400001F2D8BF002102DD934205D32946FFF703
:1011500039FF2046294697E00338C2B2012A01D858
:101160004C4A06E0202C01D0192C01D14A4A00E05B
:101170004A4A126802FB0332CA401D287BD8DFE8C6
:1011800000F0575F4E337A7A212A7A7A7A7A7A7A1D
:101190007A7A7A3C450F187A707A7A7A7A7A7A670C
:1011A0003F4B1A6003F5973340F2444203F5FA735C
:1011B0005FE03C4B1A6003F5973340F2444203F57D
:1011C000F87356E0384B1A6003F5973340F2444207
:1011D00003F5F6734DE0354B1A6003F5973340F293
:1011E000444203F5F47344E0314B1A6003F59F3336
:1011F00040F2444203F5F0733BE02E4B1A6003F5D6
:101200009F3340F2444203F5EE7332E02A4B1A60FA
:1012100003F59F3340F2444203F5EC7329E0274B7A
:101220001A6003F59F3340F2444203F5EA7320E06D
:10123000234B1A6003F580334FF45172203318E0CA
:10124000204B1A6003F580334FF451721C3310E0C9
:101250001D4B1A60A3F5DB234FF45172A3F5F9631C
:1012600007E01A4B1A60A3F5DB234FF45172A3F287
:10127000CC731A6038BD7F2B2046D4BF00210121DA
:10128000FFF7A0FE20460121BDE83840FFF7BABEB7
:101290002C89FF1F0890034008800B400880034002
:1012A00010800340188003402080034028800340C2
:1012B0003080034038800340408003404880034032
:1012C000109003401890034010800B4018800B4092
:1012D00072B60C4B0C491A680C4B1B68096862B655
:1012E000490102D5322A88BF0133C2F58C32482128
:1012F00002F23F12B2FBF1F24FF47A7000FB0320CE
:10130000704700BF18E000E004ED00E01890FF1FF8
:1013100038B50446FFF7DCFF054624B938BD013C6B
:101320000AD005F57A75FFF7D3FF401BB0F57A7F39
:10133000F5D200F0EBFDF6E738BDFFFF204B4FF490
:10134000000210B51A604FF080721A604FF0007200
:101350001A604FF080621A604FF000621A60194BF9
:10136000194A1A4C002048F6FF711860596028236A
:1013700013609360136193611362936213639363C9
:101380000922226004F58054043420606160A36067
:10139000236144F8042C04F5FE2420600C4801600D
:1013A0000C490B608B600C4B1A60FFF77FFB4FF40E
:1013B000C870FFF7ADFFBDE8104000F0D7BB00BF1D
:1013C00008E100E0048003400C80034000800340FB
:1013D00008800B400C800B4000800B40F0B50C4B9C
:1013E0000C4C1A7842F0020504EBC50682F00102AB
:1013F000706009481A700678002E0CBF8827C8272D
:1014000086F0010647EA0141067044F83510F0BD48
:101410008490FF1F0080FF1FFC90FF1F431E032BC3
:1014200010B510D872B6094A52F8230048B1416885
:1014300042F82310064A018832F81340611A22F854
:10144000131062B610BD002010BD00BF7490FF1FC6
:101450000C93FF1F013803280AD872B6054B53F8C6
:101460002030002013B101305B68FBE762B67047A3
:1014700000207047C890FF1F10B572B60123174AAD
:101480001A4412F8012C12071CD59900144A52F87C
:1014900031402CB902EB431308305860114B09E07E
:1014A00041F0010152F8314064B902EBC103083048
:1014B00058600D4B42F831300C4B1A78013A1A70D3
:1014C00062B610BD0133052BD9D162B6074B00229D
:1014D0001A70BDE8104000F0C7BB00BFF84A00001A
:1014E0000080FF1F88004000C8004000F290FF1FEE
:1014F000431E032B30B532D8194A400140F010008A
:10150000104472B6174CE25C032A09D8DFE802F0F7
:10151000160218050830022213E00830042210E0F9
:101520001148124A50F8234014B940F8231002E041
:1015300052F82300416042F823100FE0032200E03C
:101540000522E25410F0080F01F108030A884360F5
:101550000CBF8823C82343EA0243036062B630BD50
:101560000080FF1F3090FF1FC890FF1FD890FF1F03
:101570002DE9F84FAB4F3C78E4B214F0040F3D4630
:1015800019D0A94B1B78A3B1A84A117801F0FF0329
:1015900021B1013BDBB2137003B900BEA44A11783C
:1015A00001F0FF0329B1013BDBB213700BB900F06E
:1015B00089FC04233B7004F0080303F0FF02002BB6
:1015C00000F067829B4B9C4C1A78D2B215094FEA07
:1015D000920840F0E48104EBC803596854F83830AD
:1015E000C3F38303013B0C2B00F2D681DFE813F039
:1015F00095019501D401D401D401D401D401D401C1
:10160000B001D401D401D4010D008C4D0A684B689F
:101610008B486B6001218B4B44F838302A60DFF82F
:101620005082017092B240F2816000238242C8F879
:1016300000302361A36117D8B2F5D06F80F01E810E
:10164000B2F5817F00F0CF8006D8802A00F0BA8002
:10165000822A00F0BB8031E140F202339A4200F06E
:10166000D180B2F5A06F1CE042F22100824200F06E
:1016700051810ED8B2F5086F00F09E80B2F5106F60
:1016800040F01C81684B6C4EAA781A7006F18009F4
:101690000AE042F221218A4200F0088142F221331D
:1016A0009A4200F00F8109E1336A1B0603D5706A84
:1016B000083800F0D9FA08364E45F5D10026B14673
:1016C000DFF8B0A156F80A0028B1D0F804B000F055
:1016D000CBFA5846F8E74AF806005B4BDFF898A1CA
:1016E000F05056F80A0028B1D0F804B000F0BCFA67
:1016F0005846F8E7554B4AF80600F050544B23F88B
:101700001900544B19F80320023A032A08D8DFE8DD
:1017100002F002040204002200E0012203F8092082
:1017200009F10109B9F1040F06F10406C8D14A4BC9
:1017300000221A7001269A46484A494B32443344E3
:1017400012F8012C9B0012F0080F1A704FEA86095C
:1017500025D000F06BFA38B104EB4613083058601E
:10176000404B44F8393006E09AF8003044F839002C
:1017700001338AF8003000F059FA49F0010338B11A
:1017800004EBC302083050602E4A44F8332006E0D0
:1017900044F833009AF8003001338AF8003049F0F9
:1017A0000202013649F003090023052E44F83230C5
:1017B00044F83930C0D186E01B4B2B4C1B7823708A
:1017C0000B4683E0284C237063707EE0AA88042ACD
:1017D00074D8254C920023706370244B9B5C9E0749
:1017E00073D5217071E0AA8802F07F02042A65DCBB
:1017F0006B88002B62D191001C4A0A44117821F0B9
:10180000020159E0AA8802F07F02042A56DC6B88A4
:10181000002B53D19100154A0A44117841F002017E
:101820004AE000BF80200740FB90FF1F8590FF1F0C
:101830001091FF1F902007400080FF1FE890FF1FBE
:10184000FC90FF1FC80040002090FF1FD890FF1F92
:101850000C93FF1F3090FF1FF290FF1FF84A00000B
:1018600030C8011088004000F390FF1FC0200740DF
:101870001C90FF1F7490FF1FC890FF1F6A88A988E3
:101880009F4B53F8084CA3F10C00BCB133F80C6C1F
:10189000964209D133F80A6C8E4205D1120A032A06
:1018A0000CBF2378038911E00C33EAE7954A1168ED
:1018B000954A1160A978954A117004E0944B0F2263
:1018C0001A7027E000231C4600E00223EE88B34292
:1018D00038BF1E46402E34BF354640252046294697
:1018E000FFF77CFD761B2C4403D1402D12D13546E9
:1018F00003E0402E34BF3546402520462946FFF7F9
:101900006DFD761B2C4401D1402D03D1814AC8F8CE
:10191000004016800122804B3DE0804B1A8842F245
:1019200021039A4210D100237D4AC85C98540133A8
:10193000072BF9D11368862B02D17A4B0F221A702C
:1019400000200146FFF74AFD774B44F8383023E08A
:10195000764E3568B5B1DFF8BC81B8F80090B9F1C2
:10196000400F34BF4C46402428462146FFF736FD41
:10197000C4EB09039BB2A8F800300BB9402C00D18E
:101980002B193360654B1A88B2F5A06F04D1002281
:101990005A709A78664B1A7001225F4B6CE004EB28
:1019A000C806013D736802F00802A3F10800EDB219
:1019B00002F0FF01002A36D000F056F95D485E4B78
:1019C00050F82520EAB1516840F8251002F10801CD
:1019D0007160595D03290BD8DFE801F002040608A5
:1019E000032104E0022102E0052100E00421595511
:1019F00016F0080F12880CBF8823C82343EA02435D
:101A000042E05A5D032A07D8DFE802F040400204B2
:101A1000002206E0012204E016F0080F0CBF0222AB
:101A200003225A5532E054F83820120C23F8082CBF
:101A300022B3DFF834E123F8061C43F8041C5EF8F7
:101A400025303E4913B94EF8250002E051F8253003
:101A500058603B4B41F8250033F815100A4423F831
:101A6000152000F0E3F810B10830706006E0354B47
:101A700044F838001A7801321A7007E02A4B324ACB
:101A800016F0080F08BF134644F8383008233B709F
:101A900070E5E0071FD520492B482C4C02230B7022
:101AA0002B4B1A702B4B186098602B48D8601A612A
:101AB0009A615C60164B0D2018702848FF23037054
:101AC0002B700274264A1370264B9F221A70012332
:101AD0000B70BDE8F88F210604D50D4B0D221A704E
:101AE00080232B70A20705D51C4B1A78D2B21A702E
:101AF00002232B70E30644BF10232B70BDE8F88F40
:101B0000084B00001890FF1F1C93FF1F2091FF1F20
:101B1000C0200740F090FF1F94200740E890FF1F6F
:101B20001493FF1F8590FF1FC80040001C90FF1FEB
:101B300098200740C890FF1F3090FF1F2090FF1F84
:101B40000C93FF1FF290FF1F880040003490FF1F8E
:101B50008490FF1F0080FF1F8890FF1F8820074090
:101B60008C200740842007407490FF1F08B501F0C7
:101B70008DFC00221A4B0021D15098180832882A77
:101B80004160F7D1174A106840F48020106002F5D8
:101B900028326832C3F307201070C3F307401B0ECE
:101BA00010751376FF2302F81C3C02F8143C02F86F
:101BB0008C3C012302F8083C82F8641002F8183CBF
:101BC000094B70226FF450711A700B444FF400727D
:101BD0001A6003F1C04303F5C82310221A7008BD30
:101BE0000080FF1F3480044049E400E000F0A0B80A
:101BF00000F05CB800F080B800F036B900F0A6B88C
:101C0000084600F025B90846114600F0B7B87047FD
:101C1000044B00221A714FF47A711A73024A9960C8
:101C20001A6070470091FF1FB849000072B60C4A55
:101C30001168B1FA81F30B2B02D962B6002070470C
:101C40004FF00040D84021EA0001116062B605491A
:101C500048225343C8180022CA504260704700BF50
:101C60003089FF1F0084FF1F0C4B4822C31AB3FBAF
:101C7000F2F30B2B11D80A4A127822B1094A1278D2
:101C80000AB1FFF7F9BB72B6074A4FF0004121FADB
:101C900003F311681943116062B670470084FF1F97
:101CA000F290FF1FFB90FF1F3089FF1F10B5104CF3
:101CB00023686BB120684288531C0244147A02885E
:101CC000934212D3FFF7D0FF094B00221A600DE0B8
:101CD000084B1B7813B94FF0FF3010BD0320FFF7FE
:101CE0009DFB20600028E5D1F5E74380204610BD2C
:101CF0001C91FF1FFB90FF1F10B50B4C236813B105
:101D000023686BB902E0094B1B7813B94FF0FF3021
:101D100010BD0320FFF782FB20600028F0D1F5E71B
:101D20005A881344187A10BD1C91FF1FFB90FF1FA7
:101D3000044B9888044B1B681BB11A885B88D31A24
:101D4000184470470C93FF1F1C91FF1F10B5094BDF
:101D50001B786BB1084C206818B1FFF785FF002392
:101D600023600320FFF75AFB10B1FFF77DFFF8E770
:101D700010BD00BFFB90FF1F1C91FF1F2DE9F04716
:101D80002E4E01230746894633700C46002C50D056
:101D90002B4D2B68AA462BBB48F60148294B1B78D4
:101DA00003F0FF020BB9327015E00420FFF752FB7D
:101DB000072808D801233370FFF738FFCAF800005E
:101DC00080B91E4B1870B8F101081F4B01D01A786A
:101DD0002AB101221A704FF0FF30BDE8F08700F001
:101DE00095F8DBE7184B00221A702B685888C0F171
:101DF00040018C4238BF214600F1080C08449C4445
:101E00005880641A8A4204D0B85C0CF8020001328F
:101E1000F8E717445A883F2A07D940221A80194602
:101E20000420FFF765FB00232B60084B05221A7086
:101E3000ACE734704846BDE8F08700BF1191FF1F42
:101E40001491FF1FFB90FF1F1891FF1F1091FF1FA0
:101E500007B502AB012103F8010D1846FFF78EFF0D
:101E600003B05DF804FBFFFF2DE9F041114B1B7837
:101E7000F3B1114E114B3468114D01271F70984674
:101E80004CB1002763882F70042023802146FFF780
:101E90002FFB376009E0FFF7C9FE014620B104209F
:101EA0002C70FFF725FB00E02F70002388F800302E
:101EB000BDE8F081FB90FF1F1491FF1F1191FF1FE0
:101EC0001091FF1F38B50E4B1B7803F0FF05ABB91F
:101ED0000C4C216831B14B880B800420FFF708FBC4
:101EE000256038BDFFF7A2FE014620B10420BDE801
:101EF0003840FFF7FDBA044B01221A7038BD00BF0D
:101F00001191FF1F1491FF1F1091FF1F10B50E4C70
:101F10002378BBB901232370FFF70AFF08B1FFF74D
:101F200076FE00F0F7FB08B100F08AF800F050FFF1
:101F300008B100F00FF901F0DDF908B100F094F9F3
:101F40000023237010BD00BF2191FF1F08B5036857
:101F5000C9B21B68984708BD08B50368C9B21B68B9
:101F6000984708BD08B50368C9B21B68984708BD03
:101F700008B50368C9B21B68984708BD034800EB61
:101F80005100B0FBF1F000F07FB900BF00449508AC
:101F900010B5064800EB51001446B0FBF1F000F01C
:101FA00073F92046BDE8104000F0D2B9004495080E
:101FB00000F0F8B9084600F029BA084600F078BAEF
:101FC0000846114600F03EBA08B5084600F096FAF9
:101FD000003018BF012008BD08B5084600F0B0FA6F
:101FE000003018BF012008BD00F094BB00F0CCBB4E
:101FF00000F0A0BB00F072BB00F0DEBB00F078BBCD
:1020000008B5084600F0C2FA012008BD08B5084628
:1020100000F0BCFA012008BD10B508461446114670
:1020200000F0FEFA204610BD38B508460D4602F015
:10203000CBFB04462146284600F0F2FA204638BD84
:102040007047FFFF044B00221A714FF47A711A7324
:10205000024A99601A6070472491FF1FE04900000E
:1020600008B50368C9B21B68984708BD08B503687E
:10207000C9B21B68984708BD08B50368C9B21B6898
:10208000984708BD08B50368C9B21B68984708BDE2
:10209000034800EB5100B0FBF1F000F035BC00BF8D
:1020A0000044950810B5064800EB51001446B0FBFB
:1020B000F1F000F029FC2046BDE8104000F088BC9B
:1020C0000044950800F0AEBC084600F003BD084689
:1020D00000F052BD0846114600F018BD08B508468C
:1020E00000F072FD003018BF012008BD08B5084699
:1020F00000F08CFD003018BF012008BD00F068BE64
:1021000000F0A0BE00F074BE00F046BE00F0B2BE0B
:1021100000F04CBE08B5084600F096FD012008BD51
:1021200008B5084600F090FD012008BD10B508462E
:102130001446114600F0D2FD204610BD38B50846C1
:102140000D4602F041FB04462146284600F0C6FD3C
:10215000204638BD7047FFFF044B00221A714FF430
:102160007A711A73024A99601A6070473491FF1F9E
:10217000404A000008B50368C9B21B68984708BD0B
:1021800008B50368C9B21B68984708BD08B503685D
:10219000C9B21B68984708BD08B50368C9B21B6877
:1021A000984708BD034800EB5100B0FBF1F000F088
:1021B00009BF00BF00A24A0410B5064800EB510059
:1021C0001446B0FBF1F000F0FDFE2046BDE81040E3
:1021D00000F03ABF00A24A0400F060BF084600F0D9
:1021E00091BF084600F0D2BF0846114600F0A6BFD6
:1021F00008B5084600F0CCFF003018BF012008BD2C
:1022000008B5084600F0E6FF003018BF012008BD01
:1022100001F070B801F0A8B801F07CB801F04EB838
:1022200001F0BAB801F054B808B5084600F0F0FF64
:10223000012008BD08B5084600F0EAFF012008BDEE
:1022400010B508461446114601F02CF8204610BD82
:1022500038B508460D4602F0B7FA0446214628462E
:1022600001F020F8204638BD7047FFFF044B0022E4
:102270001A714FF47A711A73024A99601A607047A2
:102280004491FF1FA04A0000234B1A6842F4806269
:102290001A60224A00231370214A1370214A1370D6
:1022A000214A1370214A1370214B1B782BB1152B37
:1022B00007D140F213321F4B02E01F4B40F21332A2
:1022C0001A601E4B1B78012B05D0052B07D14FF44C
:1022D00051721B4B02E01B4B4FF451721A601A4BA8
:1022E000C0F344321A70C0F347125A70022104221C
:1022F00000F01F0098729A70D9745A7588221A7467
:102300003C22DA70114B40226FF44A711A700B4470
:102310004FF400521A60704734800440DB91FF1F75
:102320005991FF1FE491FF1FDC91FF1F5891FF1F80
:102330009A91FF1F18C0044040A004403489FF1F39
:102340001CC0044044A0044000A006402DE400E06E
:10235000134A937800F0030103F0EC030B434107A9
:1023600048BF43F01003937000F00F03042B0C4997
:1023700003D18B7943F040038B715379C20603F08C
:10238000EF03074A48BF43F0100353719379810666
:1023900003F0EF0348BF43F010039371704700BF91
:1023A00000A0064008B5114B1B685B0500D408BDB2
:1023B0000F4B1A7802F0FF0312B1FFF7A7FDF7E702
:1023C0000C4A4FF4005111600B4A0C49D37040F293
:1023D00003120A604A600A4A13700A4A13700A4BD1
:1023E0001B680BB101221A7008BD00BF3480044085
:1023F0005891FF1F84E100E000A0064040A0044087
:10240000DB91FF1F5991FF1F5491FF1F38B5044600
:10241000094B1B7803F0FF05002BF9D12046012161
:10242000FEF7F0FD20462946FEF7CCFD034B53F89E
:102430003420034B1A6038BD5891FF1F9C480000A0
:10244000E091FF1F10B509B140F08000144A1378E5
:102450009842144622D0134A126852051DD503F043
:102460007F03012B04D0052B05D100220E4B01E088
:102470000E4B00221A60002900F07F020CBF44239B
:102480006023012A05D0052A07D143F44073064A88
:1024900002E0064A43F440731360207010BD00BF91
:1024A0003489FF1F348004401CC0044044A0044011
:1024B0000E4A1378984218D00D490968490513D57A
:1024C0002BB1152B05D10B4B0021196001E00A49F6
:1024D0000B6028B1152807D140F21331054B02E0FB
:1024E000054B40F213311960107070479A91FF1F2D
:1024F0003480044018C0044040A004400D4A38B560
:10250000146814F480624FF0000410D021280A4DA2
:102510000AD80A4A012152F830302B60FEF772FDCA
:102520002B681C70012038BD2C60204638BD104639
:1025300038BD00BF348004405491FF1F9C48000008
:102540000E4B1B6813F4806316D012280C4B03D17A
:1025500040F202310B4A04E0142809D10A4A40F241
:10256000023111605A7B42F001025A730120704718
:102570005A7B02F0FE025A730020704734800440F8
:1025800000A006400CA0044014C00440F8B51D4B48
:102590001B685A05064633D51B4B1B680BB101223D
:1025A0001A701A4B1C780134402C1F4628BF002497
:1025B000174D2B78A34218D1FEF76CFC40280FDC96
:1025C000144A13791B06F3D52B7813490133402B9A
:1025D00028BF0023C95CDBB2C9B2D1712B70E7E719
:1025E000FF28E5DDFFF792FCE2E70B4BF6B21E5544
:1025F0000A4B01221A70074BE4B2BC223C70DA701D
:10260000F8BD00BF34800440E091FF1FE491FF1F3C
:10261000DC91FF1F00A006405A91FF1F5891FF1F39
:10262000274B1B685A052DE9F04707468A4644D5D3
:10263000244B1B680BB101221A703D4607EB0A03BD
:102640009D4237D2DFF890801F4E98F8004096F8F0
:1026500000900134402C28BF00245FFA89F9A1457D
:102660001DD11A4BBC22DA70FEF714FC40280FDC97
:10267000164A13791B060FD5337815490133402BC1
:1026800028BF0023C95CDBB2C9B2D171337003E04B
:10269000FF2801DDFFF73AFC33784B45E4D00C4BC3
:1026A00015F8012B1A550B4B0122E4B21A7088F869
:1026B0000040C3E7054BBC22DA70BDE8F08700BFDD
:1026C00034800440E091FF1FDC91FF1F00A0064012
:1026D0005A91FF1F5891FF1FE491FF1F08B5034B4C
:1026E0001B7813B1FFF712FCF9E708BD5891FF1FE3
:1026F000064A074B1B781078DBB2C0B283422CBF6E
:102700003F3000F1FF30C01A704700BFDC91FF1F5F
:10271000E491FF1F054B1878054B1B78C0B2DBB264
:10272000984238BF4030C01A704700BFDB91FF1F8E
:102730005991FF1F10B5104B10491A780B78D2B27F
:10274000DBB29A4214D00133402B28BF00230C483F
:10275000DCB2C05C0C700B490968C0B251B19A423E
:1027600038BF4032D31A1A2B04DC00230B7010BD83
:102770004FF0FF3010BD00BFDB91FF1F5991FF1FCD
:102780009B91FF1F5491FF1F084B1A78084B1B7831
:10279000DBB29A4207D00133402B28BF0023054A01
:1027A000D05CC0B270474FF0FF307047DB91FF1F25
:1027B0005991FF1F9B91FF1F0C4B1B685B0514D5A4
:1027C0000B4BDA7802F0CB02DA7040225A74DA78D6
:1027D00042F03402DA70074B1A78074BD2B21A7003
:1027E000064B1B680BB100221A70704734800440FE
:1027F00000A006405991FF1FDB91FF1F5491FF1F5E
:1028000030B5374B1A7912F0300F31D072B69A7D4D
:1028100002F0FF0022B9DA7940225A7462B627E04A
:1028200062B6304A304913780978DBB2C9B214462F
:102830002B4AD5795A1C402A28BF00228A42EDB281
:1028400002D02A4B9D541346421E12F0FF00EFD1D6
:10285000DAB22270264A126852B18B4236BFC1F1F9
:102860004001C1EB03035B18272BC4BF0123137086
:102870001B4BD978C9B20C0620D51B7918061DD57B
:102880001C4B1D4A1D781378EDB2DBB21046AB42EB
:102890000CD0134A0133402B1479184C28BF002365
:1028A000E45CE4B2D471127D072AF0D9DBB2037084
:1028B0000B4B1A79120644BF7C22DA704B060ED5F8
:1028C000074B1A7912F0400F194608D00C4B002222
:1028D0001A700C4B1B6803B11A703C23CB7030BDCF
:1028E00000A00640DB91FF1F5991FF1F9B91FF1F26
:1028F0005491FF1FE491FF1FDC91FF1F5A91FF1FAE
:102900005891FF1FE091FF1F234B1A6842F40062A9
:102910001A60224A00231370214A1370214A13704F
:10292000214A1370214A1370214B1B78092B05D0C3
:102930001A2B07D140F213321E4B02E01E4B40F21D
:1029400013321A601D4B1B780A2B05D01F2B07D1A1
:102950004FF451721A4B02E01A4B4FF451721A6045
:10296000194BC0F344321A70C0F347125A7000F08A
:102970001F000422022198729A70D9745A75882215
:102980001A743C22DA70114B40221A70A3F22B33D6
:102990004FF400421A607047348004405692FF1F83
:1029A000ED91FF1F5C92FF1F5792FF1FEC91FF1FDD
:1029B0003589FF1F04D004400CB004403689FF1F46
:1029C00000D0044010B0044000B006402FE400E006
:1029D000134A937800F0030103F0EC030B43410723
:1029E00048BF43F01003937000F00F03042B0C4911
:1029F00003D18B7943F040038B715379C20603F006
:102A0000EF03074A48BF43F01003537193798106DF
:102A100003F0EF0348BF43F010039371704700BF0A
:102A200000B0064008B51E4B1B681B0500D408BD4E
:102A30001C4B1B7803F0FF0213B1FFF767FAF7E7AF
:102A4000194B4FF400411960184BDA70184B1B7882
:102A5000092B05D01A2B07D140F20312154B02E0C7
:102A6000154B40F203121A60144B1B7803F07F03DE
:102A70000A2B05D01F2B07D140F20312104B02E0A6
:102A8000104B40F203121A600F4A002313700F4AD2
:102A900013700F4B1B680BB101221A7008BD00BFE9
:102AA00034800440EC91FF1F84E100E000B0064058
:102AB0003589FF1F04D004400CB004403689FF1F45
:102AC00000D0044010B004405692FF1FED91FF1F4C
:102AD000E891FF1F38B50446094B1B7803F0FF054A
:102AE000002BF9D120460121FEF78CFA2046294619
:102AF000FEF768FA034B53F83420034B1A6038BDD5
:102B0000EC91FF1F9C4800005892FF1F10B509B1BF
:102B100040F08000144A13789842144622D0134A99
:102B2000126812051DD503F07F030A2B04D01F2B5A
:102B300005D100220E4B01E00E4B00221A60002945
:102B400000F07F020CBF442360230A2A05D01F2A0D
:102B500007D143F44073064A02E0064A43F4407347
:102B60001360207010BD00BF3689FF1F3480044001
:102B700000D0044010B004400F4A137898421AD095
:102B80000E490968090515D5092B04D01A2B05D162
:102B900000210B4B01E00B4B00211960092805D0E7
:102BA0001A2807D140F21331054B02E0054B40F2E1
:102BB00013311960107070473589FF1F348004404D
:102BC00004D004400CB004400D4A38B5146814F425
:102BD00000624FF0000410D021280A4D0AD80A4A9A
:102BE000012152F830302B60FEF70CFA2B681C7074
:102BF000012038BD2C60204638BD104638BD00BFCE
:102C000034800440E891FF1F9C4800000B4B1B6878
:102C100013F4006310D01728094B09D1094A40F278
:102C2000023111605A7B42F001025A730120704751
:102C30005A7B02F0FE025A73002070473480044031
:102C400000B0064008B00440F8B51D4B1B681A05DB
:102C5000064633D51B4B1B680BB101221A701A4B69
:102C60001C780134282C1F4628BF0024174D2B78D0
:102C7000A34218D1FEF70EF940280FDC144A13794D
:102C80001B06F3D52B7813490133282B28BF0023CB
:102C9000C95CDBB2C9B2D1712B70E7E7FF28E5DD73
:102CA000FFF734F9E2E70B4BF6B21E550A4B01224F
:102CB0001A70074BE4B2BC223C70DA70F8BD00BF5A
:102CC000348004405892FF1F5C92FF1F5792FF1FF1
:102CD00000B00640EE91FF1FEC91FF1F274B1B68D1
:102CE0001A052DE9F04707468A4644D5244B1B6850
:102CF0000BB101221A703D4607EB0A039D4237D201
:102D0000DFF890801F4E98F8004096F8009001344C
:102D1000282C28BF00245FFA89F9A1451DD11A4B40
:102D2000BC22DA70FEF7B6F840280FDC164A137999
:102D30001B060FD5337815490133282B28BF0023F4
:102D4000C95CDBB2C9B2D171337003E0FF2801DD89
:102D5000FFF7DCF833784B45E4D00C4B15F8012B2A
:102D60001A550B4B0122E4B21A7088F80040C3E7F1
:102D7000054BBC22DA70BDE8F08700BF3480044008
:102D80005892FF1F5792FF1F00B00640EE91FF1FA1
:102D9000EC91FF1F5C92FF1F08B5034B1B7813B12A
:102DA000FFF7B4F8F9E708BDEC91FF1F064A074B9F
:102DB0001B781078DBB2C0B283422CBF273000F101
:102DC000FF30C01A704700BF5792FF1F5C92FF1F71
:102DD000054B1878054B1B78C0B2DBB2984238BF60
:102DE0004030C01A704700BF5692FF1FED91FF1F81
:102DF00010B5104B10491A780B78D2B2DBB29A4258
:102E000014D00133402B28BF00230C48DCB2C05C37
:102E10000C700B490968C0B251B19A4238BF4032B8
:102E2000D31A1A2B04DC00230B7010BD4FF0FF30B7
:102E300010BD00BF5692FF1FED91FF1F1692FF1F9E
:102E4000E891FF1F084B1A78084B1B78DBB29A42B7
:102E500007D00133402B28BF0023054AD05CC0B205
:102E600070474FF0FF3070475692FF1FED91FF1FE4
:102E70001692FF1F0C4B1B681B0514D50B4BDA7801
:102E800002F0CB02DA7040225A74DA7842F034024F
:102E9000DA70074B1A78074BD2B21A70064B1B68D0
:102EA0000BB100221A7070473480044000B0064015
:102EB000ED91FF1F5692FF1FE891FF1F30B5374B72
:102EC0001A7912F0300F31D072B69A7D02F0FF00FD
:102ED00022B9DA7940225A7462B627E062B6304AE3
:102EE000304913780978DBB2C9B214462B4AD57938
:102EF0005A1C402A28BF00228A42EDB202D02A4B37
:102F00009D541346421E12F0FF00EFD1DAB2227038
:102F1000264A126852B18B4236BFC1F14001C1EB63
:102F200003035B18272BC4BF012313701B4BD978F5
:102F3000C9B20C0620D51B7918061DD51C4B1D4A9D
:102F40001D781378EDB2DBB21046AB420CD0134AB9
:102F50000133282B1479184C28BF0023E45CE4B219
:102F6000D471127D072AF0D9DBB203700B4B1A79AA
:102F7000120644BF7C22DA704B060ED5074B1A7935
:102F800012F0400F194608D00C4B00221A700C4B5F
:102F90001B6803B11A703C23CB7030BD00B00640F3
:102FA0005692FF1FED91FF1F1692FF1FE891FF1F22
:102FB0005C92FF1F5792FF1FEE91FF1FEC91FF1FC6
:102FC0005892FF1F174B1A6842F480521A60164A33
:102FD00000231370154A1370154A1370154A1370A5
:102FE000154A1370154A40F2133111604FF45171B4
:102FF0005160134AC0F344311170C0F3471100F01F
:103000001F0051709072937013742C23D3700D4B6A
:1030100040226FF44B711A700B444FF400321A6067
:10302000704700BF34800440CE92FF1F6592FF1F9F
:10303000D492FF1FCF92FF1F6492FF1F08C004406D
:1030400000C0064031E400E0134A937800F0030129
:1030500003F0EC030B43410748BF43F010039370A8
:1030600000F00F03042B0C4903D18B7943F040038C
:103070008B715379C20603F0EF03074A48BF43F050
:10308000100353719379810603F0EF0348BF43F0B7
:1030900010039371704700BF00C0064008B5114B84
:1030A0001B68DB0400D408BD0F4B1A7802F0FF0345
:1030B00012B1FEF72BFFF7E70C4A4FF40031116015
:1030C0000B4A0C49D37040F203120A604A600A4A64
:1030D00013700A4A13700A4B1B680BB101221A7055
:1030E00008BD00BF348004406492FF1F84E100E00B
:1030F00000C0064008C00440CE92FF1F6592FF1F2B
:103100006092FF1F38B50446094B1B7803F0FF059A
:10311000002BF9D120460121FDF774FF20462946F6
:10312000FDF750FF034B53F83420034B1A6038BDB2
:103130006492FF1F9C480000D092FF1F10B509B198
:1031400040F080000E4A1378984217D00D4C246846
:10315000E40412D503F07F03082B02D10A4B0024AC
:103160001C60002900F07F030CBF44216021082B64
:1031700003D1054B41F440711960107010BD00BFC0
:103180003789FF1F348004400CC004407047FFFFA4
:103190000D4A38B5146814F480524FF0000410D072
:1031A00021280A4D0AD80A4A012152F830302B60F2
:1031B000FDF728FF2B681C70012038BD2C602046CD
:1031C00038BD104638BD00BF348004406092FF1FF8
:1031D0009C4800000B4B1B6813F4805310D00E2842
:1031E000094B09D1094A40F2023111605A7B42F081
:1031F00001025A73012070475A7B02F0FE025A7393
:10320000002070473480044000C0064004C00440E1
:10321000F8B51D4B1B68DA04064633D51B4B1B68FB
:103220000BB101221A701A4B1C780134282C1F464E
:1032300028BF0024174D2B78A34218D1FDF72AFE92
:1032400040280FDC144A13791B06F3D52B78134959
:103250000133282B28BF0023C95CDBB2C9B2D1716E
:103260002B70E7E7FF28E5DDFEF750FEE2E70B4BAA
:10327000F6B21E550A4B01221A70074BE4B2AC227B
:103280003C70DA70F8BD00BF34800440D092FF1F5C
:10329000D492FF1FCF92FF1F00C006406692FF1F0F
:1032A0006492FF1F38B504464518AC4204D014F8A8
:1032B000010BFFF7ADFFF8E738BDFFFF08B5034B83
:1032C0001B7813B1FEF722FEF9E708BD6492FF1FD9
:1032D000064A074B1B781078DBB2C0B283422CBF82
:1032E000273000F1FF30C01A704700BFCF92FF1F98
:1032F000D492FF1F054B1878054B1B78C0B2DBB288
:10330000984238BF4030C01A704700BFCE92FF1FAE
:103310006592FF1F10B5104B10491A780B78D2B286
:10332000DBB29A4214D00133402B28BF00230C4853
:10333000DCB2C05C0C700B490968C0B251B19A4252
:1033400038BF4032D31A1A2B04DC00230B7010BD97
:103350004FF0FF3010BD00BFCE92FF1F6592FF1FE0
:103360008E92FF1F6092FF1F084B1A78084B1B7844
:10337000DBB29A4207D00133402B28BF0023054A15
:10338000D05CC0B270474FF0FF307047CE92FF1F45
:103390006592FF1F8E92FF1F054B1A78054BD2B224
:1033A0001A70054B1B680BB100221A70704700BFE2
:1033B0006592FF1FCE92FF1F6092FF1F10B5294B31
:1033C0001A79920620D5284AD879137827490133EB
:1033D000402B097828BF00238B42C0B203D0244978
:1033E000C854D9B21170234A116869B1224A1278BF
:1033F000D2B2934236BFC2F14002C2EB03039B1824
:10340000272BC4BF01230B70164AD178C9B20C0612
:1034100016D51379180613D5184B17481C7803785E
:10342000DBB29C4202D16C23D37009E00133282B1C
:1034300028BF0023124CE45CDBB2E4B2D471037009
:103440004B060ED5074B1A7912F0400F194608D0DB
:103450000C4B00221A700C4B1B6803B11A702C2302
:10346000CB7010BD00C00640CE92FF1F6592FF1FBB
:103470008E92FF1F6092FF1FCF92FF1FD492FF1FFB
:103480006692FF1F6492FF1FD092FF1F1FB572B696
:10349000154B70221A70154A412111700F2102F844
:1034A000011C80221A701A781206FCD5104B18687D
:1034B00062B6104B984298BF0A2301AC98BF58439C
:1034C00021460A22FDF704FD0023E15C0A4A29B1E6
:1034D00002EB430001330A2B4180F6D101335B003C
:1034E000137004B010BD00BF00000240070002408E
:1034F000080002407F969800C089FF1F81F00041BC
:1035000002E000BF83F0004330B54FEA41044FEAC8
:10351000430594EA050F08BF90EA020F1FBF54EA63
:10352000000C55EA020C7FEA645C7FEA655C00F0FF
:10353000E2804FEA5454D4EB5555B8BF6D420CDDD0
:103540002C4480EA020281EA030382EA000083EA53
:10355000010180EA020281EA0303362D88BF30BDF3
:1035600011F0004F4FEA01314FF4801C4CEA113149
:1035700002D0404261EB410113F0004F4FEA0333A8
:103580004CEA133302D0524263EB430394EA050F33
:1035900000F0A780A4F10104D5F1200E0DDB02FAA2
:1035A0000EFC22FA05F2801841F1000103FA0EF236
:1035B000801843FA05F359410EE0A5F120050EF1FC
:1035C000200E012A03FA0EFC28BF4CF0020C43FA2D
:1035D00005F3C01851EBE37101F0004507D54FF03A
:1035E000000EDCF1000C7EEB00006EEB0101B1F58A
:1035F000801F1BD3B1F5001F0CD349085FEA3000D0
:103600004FEA3C0C04F101044FEA445212F5800FDA
:1036100080F09A80BCF1004F08BF5FEA500C50F177
:10362000000041EB045141EA050130BD5FEA4C0C5A
:10363000404141EB010111F4801FA4F10104E9D1E3
:1036400091F0000F04BF01460020B1FA81F308BFDA
:103650002033A3F10B03B3F120020CDA0C3208DDA6
:1036600002F1140CC2F10C0201FA0CF021FA02F181
:103670000CE002F11402D8BFC2F1200C01FA02F1F1
:1036800020FA0CFCDCBF41EA0C019040E41AA2BF16
:1036900001EB0451294330BD6FEA04041F3C1CDADE
:1036A0000C340EDC04F11404C4F1200220FA04F0FE
:1036B00001FA02F340EA030021FA04F345EA0301A8
:1036C00030BDC4F10C04C4F1200220FA02F001FA6A
:1036D00004F340EA0300294630BD21FA04F02946EC
:1036E00030BD94F0000F83F4801306BF81F4801185
:1036F0000134013D4EE77FEA645C18BF7FEA655CF8
:1037000029D094EA050F08BF90EA020F05D054EAC9
:10371000000C04BF1946104630BD91EA030F1EBFCE
:103720000021002030BD5FEA545C05D140004941D2
:1037300028BF41F0004130BD14F580043CBF01F5C5
:10374000801130BD01F0004545F0FE4141F47001AB
:103750004FF0000030BD7FEA645C1ABF1946104686
:103760007FEA655C1CBF0B46024650EA013406BF87
:1037700052EA033591EA030F41F4002130BD00BF46
:1037800090F0000F04BF0021704730B54FF4806403
:1037900004F132044FF000054FF0000150E700BF84
:1037A00090F0000F04BF0021704730B54FF48064E3
:1037B00004F1320410F0004548BF40424FF00001D0
:1037C0003EE700BF42004FEAE2014FEA31014FEA13
:1037D00002701FBF12F07F4393F07F4F81F0605162
:1037E000704792F0000F14BF93F07F4F704730B5D1
:1037F0004FF4607401F0004521F0004120E700BF64
:1038000050EA010208BF704730B54FF000050AE0EA
:1038100050EA010208BF704730B511F0004502D5EB
:10382000404261EB41014FF4806404F132045FEAED
:10383000915C3FF4DCAE4FF003025FEADC0C18BF92
:1038400003325FEADC0C18BF033202EBDC02C2F188
:10385000200300FA03FC20FA02F001FA03FE40EA1A
:103860000E0021FA02F11444C1E600BF70B54FF01A
:10387000FF0C4CF4E06C1CEA11541DBF1CEA1355FC
:1038800094EA0C0F95EA0C0F00F0DEF82C4481EA64
:10389000030621EA4C5123EA4C5350EA013518BF84
:1038A00052EA033541F4801143F4801338D0A0FB71
:1038B00002CE4FF00005E1FB02E506F00042E0FB1E
:1038C00003E54FF00006E1FB03569CF0000F18BF24
:1038D0004EF0010EA4F1FF04B6F5007F64F54074CC
:1038E00004D25FEA4E0E6D4146EB060642EAC6215F
:1038F00041EA55514FEAC52040EA5E504FEACE2ECC
:10390000B4F1FD0C88BFBCF5E06F1ED8BEF1004FCE
:1039100008BF5FEA500E50F1000041EB045170BD4A
:1039200006F0004646EA010140EA020081EA03018E
:10393000B4EB5C04C2BFD4EB0C0541EA045170BD8A
:1039400041F480114FF0000E013C00F3AB8014F104
:10395000360FDEBF002001F0004170BDC4F100044D
:10396000203C35DA0C341BDC04F11404C4F12005CE
:1039700000FA05F320FA04F001FA05F240EA020029
:1039800001F0004221F0004110EBD37021FA04F65F
:1039900042EB06015EEA430E08BF20EAD37070BD19
:1039A000C4F10C04C4F1200500FA04F320FA05F078
:1039B00001FA04F240EA020001F0004110EBD3707A
:1039C00041F100015EEA430E08BF20EAD37070BDEA
:1039D000C4F1200500FA05F24EEA020E20FA04F3C3
:1039E00001FA05F243EA020321FA04F001F0004172
:1039F00021FA04F220EA020000EBD3705EEA430EE3
:103A000008BF20EAD37070BD94F0000F0FD101F011
:103A10000046400041EB010111F4801F08BF013C4A
:103A2000F7D041EA060195F0000F18BF704703F088
:103A30000046520043EB030313F4801F08BF013D0F
:103A4000F7D043EA0603704794EA0C0F0CEA1355CB
:103A500018BF95EA0C0F0CD050EA410618BF52EA85
:103A60004306D1D181EA030101F000414FF000008B
:103A700070BD50EA410606BF1046194652EA430699
:103A800019D094EA0C0F02D150EA013613D195EA0D
:103A90000C0F05D152EA03361CBF104619460AD155
:103AA00081EA030101F0004141F0FE4141F470015F
:103AB0004FF0000070BD41F0FE4141F4780170BD4F
:103AC00070B54FF0FF0C4CF4E06C1CEA11541DBFB4
:103AD0001CEA135594EA0C0F95EA0C0F00F0A7F8B6
:103AE000A4EB050481EA030E52EA03354FEA0131E3
:103AF00000F088804FEA03334FF0805545EA1313F6
:103B000043EA12634FEA022245EA111545EA1065BD
:103B10004FEA00260EF000419D4208BF964244F154
:103B2000FD0404F5407402D25B084FEA3202B61A73
:103B300065EB03055B084FEA32024FF480104FF447
:103B4000002CB6EB020E75EB030E22BFB61A7546BB
:103B500040EA0C005B084FEA3202B6EB020E75EB4E
:103B6000030E22BFB61A754640EA5C005B084FEAB6
:103B70003202B6EB020E75EB030E22BFB61A754683
:103B800040EA9C005B084FEA3202B6EB020E75EB8E
:103B9000030E22BFB61A754640EADC0055EA060E4F
:103BA00018D04FEA051545EA16754FEA06164FEA92
:103BB000C30343EA52734FEAC2025FEA1C1CC0D13E
:103BC00011F4801F0BD141EA00014FF000004FF0CB
:103BD000004CB6E711F4801F04BF01430020B4F18C
:103BE000FD0C88BFBCF5E06F3FF6AFAEB5EB030C44
:103BF00004BFB6EB020C5FEA500C50F1000041EB41
:103C0000045170BD0EF0004E4EEA113114EB5C040D
:103C1000C2BFD4EB0C0541EA045170BD41F48011E0
:103C20004FF0000E013C90E645EA060E8DE60CEAE8
:103C3000135594EA0C0F08BF95EA0C0F3FF43BAF05
:103C400094EA0C0F0AD150EA01347FF434AF95EABC
:103C50000C0F7FF425AF104619462CE795EA0C0FA0
:103C600006D152EA03353FF4FDAE1046194622E76D
:103C700050EA410618BF52EA43067FF4C5AE50EA47
:103C800041047FF40DAF52EA43057FF4EBAE12E737
:103C90004FF0FF3C06E000BF4FF0010C02E000BF18
:103CA0004FF0010C4DF804CD4FEA410C7FEA6C5CFB
:103CB0004FEA430C18BF7FEA6C5C1BD001B050EA9E
:103CC000410C0CBF52EA430C91EA030F02BF90EA89
:103CD000020F0020704710F1000F91EA030F58BF48
:103CE000994208BF90422CBFD8176FEAE37040F0AA
:103CF000010070474FEA410C7FEA6C5C02D150EA48
:103D0000013C07D14FEA430C7FEA6C5CD6D152EA02
:103D1000033CD3D05DF8040B704700BF84461046C7
:103D200062468C461946634600E000BF01B5FFF7C6
:103D3000B7FF002848BF10F1000F01BD4DF808ED96
:103D4000FFF7F4FF0CBF012000205DF808FB00BF67
:103D50004DF808EDFFF7EAFF34BF012000205DF8C1
:103D600008FB00BF4DF808EDFFF7E0FF94BF01200E
:103D700000205DF808FB00BF4DF808EDFFF7CEFF0F
:103D800094BF012000205DF808FB00BF4DF808ED4E
:103D9000FFF7C4FF34BF012000205DF808FB00BF1F
:103DA0004FEA410212F5001215D211D56FF4787363
:103DB000B3EB625212D94FEAC12343F0004343EA06
:103DC000505311F0004F23FA02F018BF40427047E1
:103DD0004FF00000704750EA013005D111F000406B
:103DE00008BF6FF0004070474FF00000704700BF01
:103DF0004FEA4102B2F1E04324BFB3F5001CDCF10D
:103E0000FE5C0DD901F0004C4FEAC0024CEA507044
:103E1000B2F1004F40EB830008BF20F00100704773
:103E200011F0804F21D113F13872BCBF01F0004076
:103E3000704741F480114FEA5252C2F11802C2F1A8
:103E4000200C10FA0CF320FA02F018BF40F0010029
:103E50004FEAC1234FEAD32303FA0CFC40EA0C00DB
:103E600023FA02F34FEA4303CCE77FEA625307D118
:103E700050EA01331EBF4FF0FE4040F4400070474F
:103E800001F0004040F0FE4040F40000704700BFE9
:103E90000369D3F83801D3F83431C01A704770473A
:103EA0000369D3F84422B2F5817F09D8D3F84422BC
:103EB000501CC3F844021344012083F83C1170479E
:103EC000012303710020704730B50469D4F84432EF
:103ED000B3F5817F1DD8D4F84432D4F84452C3F5E9
:103EE000817301332C449A4204F59E7402D9012255
:103EF00002711A460023934203D0CD5CE55401338E
:103F0000F9E70269D2F844121944C2F8441218467B
:103F100030BD01230371002030BDFFFF38B5094BD0
:103F20000360036993F84822022A044608D1D3F8B3
:103F300064522DB1284600F02DFB284600F044FBCA
:103F4000204638BD584B0000002210B502710273A4
:103F5000064A02604FF47A74054A84604FF41B7479
:103F6000417304FB0121016110BD00BF584B0000EB
:103F7000D889FF1FD0F83421D0F838319A4208D2BE
:103F8000D0F834315A1CC0F83421184490F830006D
:103F900070474FF0FF3070470069FFF7EBBFD0F874
:103FA0003421D0F838319A423DBFD0F83431C018AE
:103FB00090F830004FF0FF3070470069FFF7EFBF17
:103FC00038B5C268836815781978C9B2044688067E
:103FD000EDB217D5C9060AD594F85A12022900F095
:103FE000C78094F85A12032940F0C980C0E094F8C1
:103FF0005A22022A00F09A8194F85A22032A40F0A9
:10400000758193E115F0100F05F0400304D01020E6
:104010001070002B00F0A88003F0FF02002B53D09B
:1040200094F851320A2B04D1D4F85C32002B40F0C2
:104030001E8205F0040505F0FF03F5B1092384F89D
:1040400051320023C4F84432A368D0221A70236985
:104050001B785B0884F85232D4F8603203B1984779
:10406000D4F844320BB984F83C31236994F83C21EC
:104070001A700123C4F8403276E094F84A2284F89A
:104080005832012A01D1122001E012B91120B2499F
:1040900003E0022A03D1B1491E20032203E0032AD0
:1040A00003D1AE491F20FCF7DFFF0A2384F8513209
:1040B0000023C4F83831A368C0221A7023691B7822
:1040C0005B0884F852324FE001F0100101F0FF0369
:1040D000F1B115F0010513D1D4F84022D4F84432DF
:1040E0009A4207D2D4F840325A1C2344C4F84022E2
:1040F00093F83C5123691D70A368D0221A7033E0F5
:10410000A368C021197023691B7884F851222BE021
:1041100094F851220A2A27D194F84A2284F8583276
:10412000012A01D1122001E012B911208A4903E0CD
:10413000022A03D189491E20032203E0032A03D166
:1041400086491F20FCF790FF23691A78D4F838318C
:10415000B3F5817FD2B207D8D4F83831591C234443
:10416000C4F8381183F83020E36802221A7038BD91
:10417000D4F864321968898B090643D592E094F823
:104180005112012957D105F0100101F0FF0069B16A
:104190000023072184F85A3284F851121221117039
:1041A000A26880211170C4F8403238BD15F00105B5
:1041B0000AD084F85A02D4F84022002A4CD00622B1
:1041C00084F85122802299E7D4F840220132C4F8C1
:1041D0004022D4F844128A4202D384F851525BE060
:1041E00094F85A22012A1FD1022284F85A22F1227D
:1041F0001A70D4F864321A79594B1A70236994F8FA
:104200003D217BE794F85A12032955D111780D0608
:10421000FCD51A79534B1A70002384F85A32D4F81B
:104220004432013BC4F84032D4F84022236922448E
:1042300092F83C2162E794F85112C9B2022927D1C1
:10424000E80607D5072384F8513212231370A368B8
:1042500080228BE7E80701D50522B1E794F85A22BE
:10426000012A08D1E12284F85A121A70D4F8643273
:104270001A793B4B08E0032284F85122D4F85422E7
:10428000012A0CBFE822E0221A7023691B786BE731
:1042900094F85122042A95D194F85022012A91D001
:1042A000B0222BE794F85A120229ABD11A792E4B7F
:1042B0001A70A368F02249E02C4A1B791268012188
:1042C000994011423FF450AF274A1370D4F864323A
:1042D0001A79274B1A700023EA0684F85A327FF5C0
:1042E00043AF072284F85122E26857E7D4F8381127
:1042F000D4F85422023191427CD094F85122042AFD
:1043000003D194F85922002A74D0D4F83821D4F873
:10431000543201329A4280F0888094F85132042B52
:104320006BD194F85932002B7FD166E0D4F8643217
:104330001A681B79928B12F0800F1BD094F85A22C6
:10434000022A17D1084A1370A368E8221A700323BF
:1043500084F85A3208E700BF39450000454500009F
:104360001B8000401C8000401F8000402C800040CB
:104370001E80004094F85A22032A26D13F4A137027
:10438000002384F85A3294F85122042A18BF84F882
:104390005132A368B0221A70D4F85432013BC4F8E9
:1043A0003831D4F838315A1CC4F8382122692344F2
:1043B000127883F8302094F85032012B7FF4D4AE79
:1043C0001823013B7FF4FDAF12E02D4A0121126852
:1043D000994011423FF4C8AE2A4A1370D4F86432AF
:1043E0001A79294B1A70002384F85A3284F8513212
:1043F000A368E7E6E8221A7087E7D4F838315A1C38
:10440000C4F8382122692344127883F8302094F8C4
:104410005132042B7FF4A8AE94F85932002B7FF46C
:10442000A3AE012384F859329EE694F8512200236A
:10443000042A84F8593201D084F85132A368B0229A
:104440001A70D4F838315A1CC4F838212269234430
:10445000127883F8302094F85032012BD7D11823EA
:10446000013B7FF4FDAFA36880221A70CFE70022E2
:10447000C4F83421D4F838019847DAE51C800040AC
:104480002C8000401E8000401F8000400148002119
:10449000FFF796BDD889FF1F01480121FFF790BDA6
:1044A000448CFF1F10B5C3681B7803F0200304463B
:1044B00003F0FF02EBB990F84A3280F85122012B49
:1044C00001D1122009E00BB9112006E0022B01D125
:1044D0001E2002E0032B02D11F20FCF745FDD4F87B
:1044E0005C323BB30022C4F83421D4F83801984739
:1044F00010BD90F858320133DBB2012B80F85832EE
:1045000004D890F84932012B00D110BD94F84A32FA
:10451000012B01D1122009E00BB9112006E0022B7A
:1045200008BF1E2002D0032B04D11F20BDE810407D
:10453000FCF71ABD10BDFFFF01480021FFF7B2BF15
:10454000D889FF1F01480121FFF7ACBF448CFF1F32
:1045500070B50C4E0C4D0D4C30460021FFF7F4FCAD
:1045600030460B4E2246294600F030F830460121F5
:10457000FFF7EAFC304629462246BDE8704000F0CD
:1045800025B800BFEC92FF1F1D3F00003C88FF1FB5
:10459000D892FF1F03790F2B10D8094A137072B6F7
:1045A000084B0279012101FA02F2198821EA02027C
:1045B0001A8062B61023037100230360704700BFA6
:1045C0001A8000400093FF1F00F03CB803460846E5
:1045D000194600F001B8FFFF70B5064C06460D46BF
:1045E00013462CB131462A460220AFF3008070BD3D
:1045F000204670BD0000000070B50E4B0E4DED1A48
:10460000AD1000241E46AC4204D056F8242090473A
:104610000134F8E700F0DEFA084D094BED1AAD1051
:1046200000241E46AC4204D056F8242090470134A2
:10463000F8E770BDE04B0000E04B0000FC4B0000D1
:10464000E04B0000024B0146186800F003B800BFC1
:10465000108FFF1F30B500293CD051F8042C0B1FE0
:104660001D49002AB8BF9B180A680C4612B95A6047
:104670000B6030BD93420DD219685818904203D197
:104680005A581144426819605A60236030BD9942FB
:1046900003D80A4651680029F9D1146815199D42BA
:1046A0000AD11B682344D0188842136012D10868CD
:1046B000034413604B680CE002D90C23036030BD47
:1046C00018681C188C4203D10C6849682044186093
:1046D0005960536030BD00BF0893FF1F70B5CD1CFB
:1046E00025F0030508350C2D38BF0C25002D064696
:1046F0003FDB8D423DD3214B1C6818462146A1B1BA
:104700000B685B1B0ED40B2B03D90B60CC18CD5060
:104710001FE08C4202D1626802601AE04B6863605D
:104720000C4616E00C464968E9E7154C23681BB9AE
:10473000304600F031F820602946304600F02CF871
:10474000431C014615D0C41C24F0030484420AD142
:10475000256004F10B00231D20F00700C31A0BD0C5
:104760005A42E25070BD3046611A00F015F801302F
:10477000EED10C233360002070BD00BF0893FF1FF3
:104780000493FF1F0A46034903460868194600F0D0
:1047900023B800BF108FFF1F38B5064C0023054615
:1047A00008462360FCF76EFB431C02D1236803B16B
:1047B0002B6038BD2093FF1F034611F8012B03F82F
:1047C000012B002AF9D17047034613F8012B002A68
:1047D000FBD1181A01387047F8B5064614460D4645
:1047E00021B91146BDE8F840FFF778BF1AB9FFF7C5
:1047F00031FF2046F8BD00F015F8A0420ED2304639
:104800002146FFF76BFF074650B129462246FCF7C9
:1048100071FA30462946FFF71DFF01E02846F8BD32
:104820003846F8BD51F8040C002802DA04390B5858
:1048300018440438704773746F72696E672000679C
:10484000657474696E672E2E2E00676F743A2000AF
:104850002A2A2A2042616420636865636B73756D40
:1048600000050E08090D0C06070F0400130393053D
:104870000E08090D0C06070F04FFFFC58584868707
:10488000C4FFFF001303931A92176FF07F030370A6
:10489000037813F0800FFBD07047FFFF4008FE4302
:1048A00040A004404408FE4344A004400018FE43D6
:1048B00000C004403000FE43309004403400FE430A
:1048C000349004401C18FE431CC004401018FE43E2
:1048D00010C004400818FE4308C004400C18FE43F2
:1048E0000CC004400C10FE430CB004401010FE43FA
:1048F00010B004401810FE4318B004401C10FE43D2
:104900001CB004401410FE4314B004400418FE43CD
:1049100004C004400010FE4300B004400008FE4301
:1049200000A004400408FE4304A004400C08FE4319
:104930000CA004400808FE4308A004401418FE43DD
:1049400014C004401818FE4318C004400410FE436D
:1049500004B004400810FE4308B004401400FE43B5
:10496000149004404C08FE434CA004400420FE4335
:1049700004D004402410FE4324B004402010FE4321
:1049800020B004402810FE4328B004402C10FE4301
:104990002CB004400020FE4300D004404808FE43F1
:1049A00048A004401000FE4310900440FFFFFFFFAA
:1049B0000000000000000000011C0000071C0000B7
:1049C000ED1B0000F11B0000F51B0000F91B0000AF
:1049D000FD1B0000000000000000000000000000BF
:1049E0000120000019200000E91F0000F11F000055
:1049F000ED1F0000F51F00007D1F0000911F00004B
:104A0000B11F0000B51F0000BB1F0000C11F000048
:104A1000C91F0000D91F0000F91F0000FD1F000082
:104A20004D1F0000591F0000651F0000711F00008E
:104A3000292000000D200000000000000000000000
:104A4000152100002D210000FD200000052100009F
:104A5000012100000921000091200000A520000094
:104A6000C5200000C9200000CF200000D520000094
:104A7000DD200000ED2000000D21000011210000CC
:104A8000612000006D2000007920000085200000DA
:104A90003D21000021210000000000000000000076
:104AA00029220000412200001122000019220000EA
:104AB000152200001D220000A5210000B9210000E0
:104AC000D9210000DD210000E3210000E9210000E0
:104AD000F121000001220000212200002522000017
:104AE00075210000812100008D2100009921000026
:104AF00051220000352200000015191500010000A8
:104B00003889FF1F12000000000200006289FF1FA9
:104B10004300000000030000BC89FF1F00000000EC
:104B2000010309044A89FF1F000000000203090471
:104B3000A689FF1F0000000003030904C089FF1FAE
:104B40000000000000000000000000000000000065
:104B50000000000000000000A13E0000C93E00006F
:104B6000913E0000993F0000BB3F00009F3E0000C7
:104B70004300FFFF000000000000000000000000F4
:104B80000000000000000000000000000000000025
:104B90000000000000000000000000000000000015
:104BA0000000000000000000000000000000000005
:104BB00000000000000000000000000000000000F5
:104BC00000000000000000000000000000000000E5
:104BD00000000000F8B500BFF8BC08BC9E46704756
:104BE0003504000041080000111C000045200000B1
:0C4BF000592100006D220000514500001A
:104BFC00084B10B51C681C6054B194FAA4F2B2FABC
:104C0C0082F2054B53F822309847631E1C40F4D1B6
:104C1C0010BD00BFA0D004402489FF1F084B10B565
:104C2C001C681C6054B194FAA4F2B2FA82F2054BDF
:104C3C0053F822309847631E1C40F4D110BD00BFBE
:104C4C00A0C004400489FF1F084B10B51C681C60F1
:104C5C0054B194FAA4F2B2FA82F2054B53F8223012
:104C6C009847631E1C40F4D110BD00BFA0B0044097
:104C7C00D488FF1F084B10B51C681C6054B194FA03
:104C8C00A4F2B2FA82F2054B53F822309847631E15
:104C9C001C40F4D110BD00BFA0A004408488FF1FAD
:104CAC00084B10B51C681C6054B194FAA4F2B2FA0B
:104CBC0082F2054B53F822309847631E1C40F4D106
:104CCC0010BD00BFA09004404C88FF1F00000000E6
:104CDC00C3B8323F01010A042493FF1F0D0F0000DB
:104CEC000D0F00000D0F00000D0F00000D0F000048
:104CFC000D0F00000D0F00000D0F00000D0F000038
:104D0C000D0F00000D0F00000D0F00000D0F000027
:104D1C000D0F00000D0F00000D0F00000D0F000017
:104D2C000D0F00000D0F00000D0F00000D0F000007
:104D3C000D0F00000D0F00000D0F00000D0F0000F7
:104D4C000D0F00000D0F00000D0F00000D0F0000E7
:104D5C000D0F00000D0F00000D0F00000D0F0000D7
:104D6C000D0F00000D0F00000D0F00000D0F0000C7
:104D7C000D0F00000D0F00000D0F00000D0F0000B7
:104D8C000D0F00000D0F00000D0F00000D0F0000A7
:104D9C000D0F00000D0F00000D0F00000D0F000097
:104DAC000D0F00000D0F00000D0F00000D0F000087
:104DBC000D0F00000D0F00000D0F0000080000008B
:104DCC00FFFFFFFF01090A08120101010200004068
:104DDC00C01683040002010203011803540065008D
:104DEC0065006E00730079006400750069006E0048
:104DFC006F0009024300020100C0320904000001E7
:104E0C000202010005240010010524010101042403
:104E1C000206052406000107058203100040090460
:104E2C000100020A0000000705030240000007050C
:104E3C00840240000000160355005300420020007D
:104E4C00530065007200690061006C0004030904E2
:104E5C000C03000000000000000000000000000037
:104E6C0000000000000000000060064001600640E9
:104E7C000260064003600640046006400560064080
:104E8C000660064007600640086006400960064060
:104E9C000A6006400B6006400000000000000000A5
:104EAC0000000000000000000000000000000000F6
:104EBC0000000000000000000000000000000000E6
:104ECC0000000000000000000000000000000000D6
:104EDC0000000000000000000000000000000000C6
:1050BC0001000100A08601000100000000000000BA
:1050CC0000000000000000000000000000000000D4
:1050DC00000000000070064001700640027006409F
:1050EC0003700640047006400570064006700640CA
:1050FC000770064008700640097006400A700640AA
:10510C000B700640000000000000000000000000D2
:10511C000000000000000000000000000000000083
:10512C000000000000000000000000000000000073
:10513C000000000000000000000000000000000063
:10514C000000000000000000000000000000000053
:10515C000000000000000000000000000000000043
:10516C000000000000000000000000000000000033
:10517C000000000000000000000000000000000023
:10518C000000000000000000000000000000000013
:10519C000000000000000000000000000000000003
:1051AC0000000000000000000000000000000000F3
:1051BC0000000000000000000000000000000000E3
:1051CC0000000000000000000000000000000000D3
:1051DC0000000000000000000000000000000000C3
:1051EC0000000000000000000000000000000000B3
:1051FC0000000000000000000000000000000000A3
:10520C000000000000000000000000000000000092
:10521C000000000000000000000000000000000082
:10522C000000000000000000000000000000000072
:10523C000000000000000000000000000000000062
:10524C000000000000000000000000000000000052
:10525C000000000000000000000000000000000042
:10526C000000000000000000000000000000000032
:10527C000000000000000000000000000000000022
:10528C000000000000000000000000000000000012
:10529C000000000000000000000000000000000002
:1052AC0000000000000000000000000000000000F2
:1052BC0000000000000000000000000000000000E2
:1052CC0000000000000000000000000000000000D2
:1052DC0000000000000000000000000000000000C2
:1052EC0000000000000000000000000000000000B2
:1052FC0000000000000000000000000000000000A2
:10530C000000000000000000000000000000000091
:10531C00000000000000000000000000010002007E
:10532C00A086010001000000000000000000000049
:10533C000000000000000000000000000000000061
:10534C0000000000744B0000944B0000B44B0000B4
:10535C000000000000000000000000000000000041
:10536C00704B000000000000000000000000000076
:10537C000000000000000000000000000000000021
:10538C000000000000000000000000000000000011
:10539C000000000000000000000000000000000001
:0453AC00B08EFF1FA1
:00000001FF
